:020000040800F2
:100000006806002099010008A1010008A30100086A
:10001000A5010008A7010008A901000800000000D0
:10002000000000000000000000000000AB0100081C
:10003000AD01000800000000AF01000881030008C6
:10004000B3010008B3010008B3010008B3010008C0
:10005000B3010008B3010008B3010008B3010008B0
:10006000B3010008B3010008B3010008B3010008A0
:10007000B3010008B3010008B3010008B301000890
:10008000B3010008B3010008B3010008B301000880
:10009000B3010008B3010008B3010008B301000870
:1000A000B3010008B3010008B3010008B301000860
:1000B000B3010008B3010008B3010008B301000850
:1000C000B3010008B3010008B3010008B301000840
:1000D000B3010008B3010008B3010008B301000830
:1000E000B3010008B3010008B301000800F002F8F2
:1000F00000F042F814A696E8000CB244B344DA4586
:1001000001D100F039F8BAE80F000FA696E83000E8
:10011000A5EB040504EB0607AAEB0704A7F101070A
:100120004FEA15154FEA3414A4F10104AC4201D38F
:1001300000F022F813F0010F18BFFB1A43F001037F
:1001400000F001F8DBE718475404000064040000E5
:10015000704700000023002400250026103A28BF25
:1001600078C1FBD8520728BF30C148BF0B60704729
:100170001FB51FBD10B510BD00F031F81146FFF7D7
:10018000F7FF00F099F900F04FF803B4FFF7F2FF22
:1001900003BC00F057F800000948804709480047B1
:1001A000FEE7FEE7FEE7FEE7FEE7FEE7FEE7FEE727
:1001B000FEE7FEE704480549054A064B7047000084
:1001C000A1030008ED000008680000206806002078
:1001D000680200206802002070477047704775462B
:1001E00000F02CF8AE4605006946534620F00700A3
:1001F000854618B020B5FFF7DDFFBDE820404FF081
:1002000000064FF000074FF000084FF0000BAC461F
:10021000ACE8C009ACE8C009ACE8C009ACE8C0096A
:1002200021F007018D46704710B50446AFF30080FA
:100230002046BDE81040FFF7A8BF00000048704707
:100240000000002001491820ABBEFEE72600020096
:100250007047000080B500F001F880BD84B0002038
:100260000390029041F20001C4F20201086840F4D8
:1002700080300860FFE741F20000C4F2020000682D
:1002800000F400300290039801300390FFE70299D8
:100290000020019039B9FFE70398B0F5A06018BFBE
:1002A00001200190FFE70198C0070028E3D1FFE794
:1002B00041F20000C4F2020000688003002803D568
:1002C000FFE70120029002E000200290FFE7029881
:1002D000012851D1FFE742F20001C4F2020108688F
:1002E00040F010000860086820F007000860086807
:1002F00040F00200086041F20401C4F202010091E2
:100300000868086008680860086840F48060086051
:10031000086820F47C100860086840F4E810086061
:1003200041F20001C4F20201086840F080700860E8
:10033000FFE741F20000C4F20200006880010028DB
:1003400001D4FFE7F5E741F20401C4F202010868B5
:1003500020F003000860086840F002000860FFE732
:1003600041F20400C4F20200006800F00C0008280A
:1003700001D0FFE7F4E700E0FFE704B070470000BA
:1003800040F26000C2F20000006840B1FFE740F2B6
:100390006001C2F20001086801380860FFE7704799
:1003A00080B541F20002C4F20202106840F0010080
:1003B000106041F20401C4F2020108680023CFF684
:1003C000FF031840086010684FF6FF73CFF6F6631E
:1003D00018401060106820F480201060086820F435
:1003E000FE00086041F20801C4F202014FF41F0050
:1003F0000860FFF72FFF4EF60851CEF200014FF0D4
:100400000060086080BD000041F21801C4F20201E2
:10041000086840F00400086040F60003C4F20103DD
:10042000186840F002001860186820F00100186099
:10043000186840F008001860186820F00400186080
:100440000422C4F20102106820F4407010601868A1
:1004500020F030001860186840F0800018601868BC
:1004600020F040001860186840F0007018601868AC
:1004700020F080701860186840F0006018601868FC
:1004800020F080601860106820F4406010600868F8
:1004900040F01000086041F20401C4F20101086854
:1004A00040F400100860086820F4801008600868B4
:1004B00020F440000860704780B582B000200190B1
:1004C000FFF7A2FF00F004F800F02EF8FFE7FEE7C8
:1004D00041F21C01C4F20201086840F0010008600A
:1004E0002821C4F20001012008802C21C4F200015F
:1004F00048F69F4008801821C4F20001088820F0C7
:1005000040000880088840F0300008802021C4F2B4
:100510000001088840F0010008804FF08041088801
:1005200040F001000880704741F21C01C4F2020152
:10053000086840F00200086040F22841C4F200015F
:100540001520088040F22C41C4F200014FF6AD7036
:10055000088040F23441C4F2000140F6C9400880EE
:1005600040F21841C4F20001088840F060000880A1
:10057000088820F01000088040F22041C4F20001F9
:10058000088840F00100088040F20041C4F20001F8
:10059000088840F00100088070470000AC050008A2
:0C05A00000000020680600005401000864
:04000005080000ED02
:00000001FF
