:020000040800F2
:1000000070060020B5010008BD010008BF0100080E
:10001000C1010008C3010008C5010008000000007C
:10002000000000000000000000000000C701000800
:10003000C901000800000000CB010008F10300081E
:10004000CF010008CF010008CF010008CF01000850
:10005000CF010008CF010008CF010008CF01000840
:10006000CF010008CF010008CF010008CF01000830
:10007000CF010008CF010008CF010008CF01000820
:10008000CF010008CF010008CF010008CF01000810
:10009000CF010008CF010008CF010008CF01000800
:1000A000CF010008CF010008CF010008CF010008F0
:1000B000CF010008CF010008CF010008CF010008E0
:1000C000CF010008CF010008CF010008CF010008D0
:1000D000CF010008CF010008CF010008CF010008C0
:1000E000CF010008CF010008CF01000800F002F89E
:1000F00000F050F814A696E8000CB244B344DA4578
:1001000001D100F047F8BAE80F000FA696E83000DA
:10011000A5EB040504EB0607AAEB0704A7F101070A
:100120004FEA15154FEA3414A4F10104AC4201D38F
:1001300000F030F813F0010F18BFFB1A43F0010371
:1001400000F001F8DBE71847F40500001406000092
:10015000103A24BF78C878C1FAD8520724BF30C8F3
:1001600030C144BF04680C60704700007047000055
:100170000023002400250026103A28BF78C1FBD8B0
:10018000520728BF30C148BF0B6070471FB51FBD65
:1001900010B510BD00F031F81146FFF7F7FF00F081
:1001A000B9FA00F04FF803B4FFF7F2FF03BC00F018
:1001B00057F800000948804709480047FEE7FEE776
:1001C000FEE7FEE7FEE7FEE7FEE7FEE7FEE7FEE707
:1001D00004480549054A064B7047000035050008EC
:1001E000ED00000870000020700600207002002062
:1001F00070020020704770477047754600F02CF879
:10020000AE4605006946534620F00700854618B003
:1002100020B5FFF7DDFFBDE820404FF000064FF0AE
:1002200000074FF000084FF0000BAC46ACE8C009E7
:10023000ACE8C009ACE8C009ACE8C00921F007018E
:100240008D46704710B50446AFF300802046BDE8E8
:100250001040FFF7A8BF00000048704708000020CA
:1002600001491820ABBEFEE72600020070470000DF
:1002700080B500F001F880BD84B0002003900290AA
:1002800041F20001C4F20201086840F480300860C5
:10029000FFE741F20000C4F20200006800F4003001
:1002A0000290039801300390FFE70299002001902B
:1002B00039B9FFE70398B0F5A06018BF012001909D
:1002C000FFE70198C0070028E3D1FFE741F20000F3
:1002D000C4F2020000688003002803D5FFE7012074
:1002E000029002E000200290FFE70298012851D11D
:1002F000FFE742F20001C4F20201086840F010007A
:100300000860086820F007000860086840F00200F4
:10031000086041F20401C4F202010091086808601B
:1003200008680860086840F480600860086820F485
:100330007C100860086840F4E810086041F2000191
:10034000C4F20201086840F080700860FFE741F2E3
:100350000000C4F2020000688001002801D4FFE719
:10036000F5E741F20401C4F20201086820F003003D
:100370000860086840F002000860FFE741F20400EE
:10038000C4F20200006800F00C00082801D0FFE76A
:10039000F4E700E0FFE704B07047000080B582B0EA
:1003A000009000980138B0F1807F03D3FFE701206F
:1003B000019019E0009801384EF21401CEF20001CC
:1003C00008604FF0FF300F2100F0E8F84EF21801FE
:1003D000CEF20001002008604EF21002CEF20002C0
:1003E000072111600190FFE7019802B080BD000075
:1003F00040F26800C2F20000006840B1FFE740F23E
:100400006801C2F20001086801380860FFE7704720
:1004100084B0002003900290019041F20400C4F2E5
:100420000200006800F00C0003900398009040B1B7
:10043000FFE7009804280ED0FFE70098082814D0A2
:1004400056E040F20001C2F2000141F20020C0F289
:100450007A00086056E040F20001C2F2000141F269
:100460000020C0F27A0008604CE041F20400C4F2BF
:100470000200016801F470110291006800F48030FC
:1004800001900299022000EB91400290019860B91E
:10049000FFE7029840F60011C0F23D01484340F2E8
:1004A0000001C2F20001086021E041F20400C4F240
:1004B00002000068800300280CD5FFE7029840F690
:1004C0000011C0F23D01484340F20001C2F20001B8
:1004D00008600BE0029841F20021C0F27A01484323
:1004E00040F20001C2F200010860FFE7FFE709E007
:1004F00040F20001C2F2000141F20020C0F27A0095
:100500000860FFE741F20400C4F202000068C0B2D4
:10051000010940F22A70C0F60000405C0390039A83
:1005200040F20001C2F200010868D040086004B047
:100530007047000080B541F20002C4F20202106868
:1005400040F00100106041F20401C4F202010868A9
:100550000023CFF6FF031840086010684FF6FF73C2
:10056000CFF6F66318401060106820F48020106009
:10057000086820F4FE00086041F20801C4F202019C
:100580004FF41F000860FFF773FE4EF60851CEF2DD
:1005900000014FF00060086080BD000082B08DF85F
:1005A000070000919DF9070000280AD4FFE7009892
:1005B00000019DF907104EF20042CEF2000288546D
:1005C0000BE0009800019DF8071001F00F014EF6B6
:1005D0001452CEF200028854FFE702B070470000C8
:1005E00080B5FFF715FF40F20000C2F2000000687E
:1005F0004DF68361C4F21B31A0FB0110800CFFF7A4
:10060000CDFE80BD80B582B00190FFE70198411E0C
:10061000019128B1FFE74FF47A7000F003F8F5E795
:1006200002B080BD81B00090009840F26801C2F233
:1006300000010860FFE740F26800C2F200000068B5
:1006400008B1FFE7F7E701B07047000041F2180179
:10065000C4F20201086840F00400086040F600029D
:10066000C4F20102106840F002001060106820F02F
:1006700001001060106840F008001060106820F061
:1006800004001060106840F020001060106820F036
:1006900010001060106840F080001060106820F0BA
:1006A000400010600422C4F20102106820F440707F
:1006B0001060086840F01000086041F20401C4F2C4
:1006C0000101086820F450000860086840F4001038
:1006D0000860704780B582B00190FFF781FF01206C
:1006E0000090FFE700980199884210DCFFE741F293
:1006F0000C01C4F20101086880F400500860C820B1
:10070000FFF780FFFFE7009801300090EAE702B0B2
:1007100080BD000080B582B000200190FFF796FFF9
:100720003220FFF7D7FFFFE7FEE7000000000000E0
:100730000000010203040607080900006007000822
:1007400000000020080000005001000868070008B1
:10075000080000206806000070010008000000008A
:0807600000A24A0400000000A1
:04000005080000ED02
:00000001FF
