:020000040800F2
:1000000070060020B5010008BD010008BF0100080E
:10001000C1010008C3010008C5010008000000007C
:10002000000000000000000000000000C701000800
:10003000C901000800000000CB01000861040008AD
:10004000CF010008CF010008CF010008CF01000850
:10005000CF010008CF010008CF010008CF01000840
:10006000CF010008CF0100089D02000871020008BE
:10007000CF010008CF010008CF010008CF01000820
:10008000CF010008CF010008CF010008CF01000810
:10009000CF010008CF010008CF010008CF01000800
:1000A000CF010008CF010008CF010008CF010008F0
:1000B000CF010008CF010008CF010008CF010008E0
:1000C000CF010008CF010008CF010008CF010008D0
:1000D000CF0100080D060008CF010008CF0100087D
:1000E000CF010008CF010008CF01000800F002F89E
:1000F00000F050F814A696E8000CB244B344DA4578
:1001000001D100F047F8BAE80F000FA696E83000DA
:10011000A5EB040504EB0607AAEB0704A7F101070A
:100120004FEA15154FEA3414A4F10104AC4201D38F
:1001300000F030F813F0010F18BFFB1A43F0010371
:1001400000F001F8DBE71847000900002009000073
:10015000103A24BF78C878C1FAD8520724BF30C8F3
:1001600030C144BF04680C60704700007047000055
:100170000023002400250026103A28BF78C1FBD8B0
:10018000520728BF30C148BF0B6070471FB51FBD65
:1001900010B510BD00F031F81146FFF7F7FF00F081
:1001A000DBFB00F04FF803B4FFF7F2FF03BC00F0F5
:1001B00057F800000948804709480047FEE7FEE776
:1001C000FEE7FEE7FEE7FEE7FEE7FEE7FEE7FEE707
:1001D00004480549054A064B70470000A50500087C
:1001E000ED00000870000020700600207002002062
:1001F00070020020704770477047754600F02CF879
:10020000AE4605006946534620F00700854618B003
:1002100020B5FFF7DDFFBDE820404FF000064FF0AE
:1002200000074FF000084FF0000BAC46ACE8C009E7
:10023000ACE8C009ACE8C009ACE8C00921F007018E
:100240008D46704710B50446AFF300802046BDE8E8
:100250001040FFF7A8BF00000048704708000020CA
:1002600001491820ABBEFEE72600020070470000DF
:100270000020C4F202000068800700280CD5FFE7C8
:100280000421C4F202010220086040F26801C2F2B7
:10029000000101200870FFE77047000080B582B0C0
:1002A00040F21441C4F201011020086001200190C5
:1002B000FFE70198042810DCFFE741F20C01C4F2CB
:1002C0000101086880F400500860C82000F020FA9E
:1002D000FFE7019801300190EBE702B080BD00001C
:1002E00080B500F001F880BD84B00020039002903A
:1002F00041F20001C4F20201086840F48030086055
:10030000FFE741F20000C4F20200006800F4003090
:100310000290039801300390FFE7029900200190BA
:1003200039B9FFE70398B0F5A06018BF012001902C
:10033000FFE70198C0070028E3D1FFE741F2000082
:10034000C4F2020000688003002803D5FFE7012003
:10035000029002E000200290FFE70298012851D1AC
:10036000FFE742F20001C4F20201086840F0100009
:100370000860086820F007000860086840F0020084
:10038000086041F20401C4F20201009108680860AB
:1003900008680860086840F480600860086820F415
:1003A0007C100860086840F4E810086041F2000121
:1003B000C4F20201086840F080700860FFE741F273
:1003C0000000C4F2020000688001002801D4FFE7A9
:1003D000F5E741F20401C4F20201086820F00300CD
:1003E0000860086840F002000860FFE741F204007E
:1003F000C4F20200006800F00C00082801D0FFE7FA
:10040000F4E700E0FFE704B07047000080B582B079
:10041000009000980138B0F1807F03D3FFE70120FE
:10042000019019E0009801384EF21401CEF200015B
:1004300008604FF0FF300F2100F026F94EF218014E
:10044000CEF20001002008604EF21002CEF200024F
:10045000072111600190FFE7019802B080BD000004
:1004600040F26C00C2F20000006840B1FFE740F2C9
:100470006C01C2F20001086801380860FFE77047AC
:1004800084B0002003900290019041F20400C4F275
:100490000200006800F00C0003900398009040B147
:1004A000FFE7009804280ED0FFE70098082814D032
:1004B00056E040F20001C2F2000141F20020C0F219
:1004C0007A00086056E040F20001C2F2000141F2F9
:1004D0000020C0F27A0008604CE041F20400C4F24F
:1004E0000200016801F470110291006800F480308C
:1004F00001900299022000EB91400290019860B9AE
:10050000FFE7029840F60011C0F23D01484340F277
:100510000001C2F20001086021E041F20400C4F2CF
:1005200002000068800300280CD5FFE7029840F61F
:100530000011C0F23D01484340F20001C2F2000147
:1005400008600BE0029841F20021C0F27A014843B2
:1005500040F20001C2F200010860FFE7FFE709E096
:1005600040F20001C2F2000141F20020C0F27A0024
:100570000860FFE741F20400C4F202000068C0B264
:10058000010940F63620C0F60000405C0390039A53
:1005900040F20001C2F200010868D040086004B0D7
:1005A0007047000080B541F20002C4F202021068F8
:1005B00040F00100106041F20401C4F20201086839
:1005C0000023CFF6FF031840086010684FF6FF7352
:1005D000CFF6F66318401060106820F48020106099
:1005E000086820F4FE00086041F20801C4F202012C
:1005F0004FF41F000860FFF773FE4EF60851CEF26D
:1006000000014FF00060086080BD000081B043F63B
:100610000C00C4F20100008843F60001C4F201019D
:10062000098808400006002813D5FFE741208DF80F
:10063000030043F60C01C4F20101088820F0800099
:1006400008809DF8030043F60401C4F2010108800C
:10065000FFE701B07047000081B08DF803009DF9FD
:10066000030000280ED4FFE79DF9031001F01F02DC
:10067000012090404A094EF20011CEF2000141F8EB
:100680002200FFE701B0704782B08DF807000091AB
:100690009DF9070000280AD4FFE7009800019DF9A2
:1006A00007104EF20042CEF2000288540BE0009890
:1006B00000019DF8071001F00F014EF61452CEF222
:1006C00000028854FFE702B07047000080B5FFF7D2
:1006D000D7FE40F20000C2F2000000684DF68361D0
:1006E000C4F21B31A0FB0110800CFFF78FFE80BD10
:1006F00080B582B00190FFE70198411E019128B1B9
:10070000FFE74FF47A7000F029F8F5E702B080BDFA
:1007100083B0ADF80A0000200190ADF80200FFE7B9
:10072000BDF80200BDF80A10884215DAFFE7002084
:100730000190FFE7019841F26F71884205D8FFE709
:10074000FFE7019801300190F4E7FFE7BDF80200F0
:100750000130ADF80200E3E703B0704781B00090CC
:10076000009840F26C01C2F200010860FFE740F21D
:100770006C00C2F20000006808B1FFE7F7E701B0C3
:100780007047000080B586B043F63810ADF814000D
:1007900043F23450C3F23670049043F23010C3F287
:1007A0003230039041F21401C4F2020101200860CA
:1007B0001021C4F2020103A808601421C4F202014E
:1007C0000DF1020008600C21C4F202010A20086049
:1007D0000821C4F20201086844F2C2021043086012
:1007E000086840F0010008600B20FFF735FFFFE7C5
:1007F00040F26800C2F20000007808B9FFE7F7E7AE
:1008000006B080BD41F21801C4F20201086840F050
:100810000400086040F60003C4F20103186840F0C9
:1008200002001860186820F001001860186840F095
:1008300008001860186820F0040018600422C4F250
:100840000102106820F440701060186840F00070D9
:100850001860186820F080701860186840F0006018
:100860001860186820F080601860106820F44060FC
:100870001060086844F2FC021043086040F604026D
:10088000C4F20102106840F400601060106820F4A7
:100890004070106040F60C03C4F20103186840F485
:1008A00080601860106840F080001060106840F0B0
:1008B00030001060086840F07D00086040F600429B
:1008C000C4F20102106820F440301060106840F457
:1008D00000201060106820F48020106040F60C4268
:1008E000C4F20102106840F010001060086840F087
:1008F0001000086041F20401C4F20101086840F4EC
:1009000000100860086820F480100860086820F46F
:10091000400008607047000080B582B00190FFF78A
:10092000D5FE01200090FFE700980199884210DC75
:10093000FFE741F20C01C4F20101086880F40050A5
:100940000860C820FFF7D4FEFFE700980130009050
:10095000EAE702B080BD000080B582B000200190BF
:10096000FFF750FF1420FFF7D7FF00F005F8FFF75F
:1009700009FFFFE7FEE7000083B000208DF80800C4
:1009800044F22040C4F24D10019046F64870C6F281
:100990006C10009041F21401C4F2020101200860C1
:1009A00041F21801C4F20201086844F2FC0210434B
:1009B000086040F60C01C4F20101086840F4806050
:1009C000086040F60401C4F2010144F6B400C4F228
:1009D0004440086043F60801C4F2010141F64C505E
:1009E000088043F60C01C4F2010142F20C000880B9
:1009F00043F61401C4F20101802008804C21C4F2A6
:100A0000020143F60400C4F2010008605021C4F260
:100A10000201684608604821C4F202010C20086007
:100A20004421C4F2020190200860086840F00100EF
:100A3000086003B0704700000000000000000102E1
:100A40000304060708090000680A000800000020E7
:100A50000800000050010008700A0008080000208B
:100A6000680600007001000800A24A0400000000AF
:04000005080000ED02
:00000001FF
