:020000040800F2
:100000006806002099010008A1010008A30100086A
:10001000A5010008A7010008A901000800000000D0
:10002000000000000000000000000000AB0100081C
:10003000AD01000800000000AF010008C503000882
:10004000B3010008B3010008B3010008B3010008C0
:10005000B3010008B3010008B3010008B3010008B0
:10006000B3010008B301000855020008B3010008FD
:10007000B3010008B3010008B3010008B301000890
:10008000B3010008B3010008B3010008B301000880
:10009000B3010008B3010008B3010008B301000870
:1000A000B3010008B3010008B3010008B301000860
:1000B000B3010008B3010008B3010008B301000850
:1000C000B3010008B3010008B3010008B301000840
:1000D000B30100084D040008B3010008B301000893
:1000E000B3010008B3010008B301000800F002F8F2
:1000F00000F042F814A696E8000CB244B344DA4586
:1001000001D100F039F8BAE80F000FA696E83000E8
:10011000A5EB040504EB0607AAEB0704A7F101070A
:100120004FEA15154FEA3414A4F10104AC4201D38F
:1001300000F022F813F0010F18BFFB1A43F001037F
:1001400000F001F8DBE7184720050000300500004B
:10015000704700000023002400250026103A28BF25
:1001600078C1FBD8520728BF30C148BF0B60704729
:100170001FB51FBD10B510BD00F031F81146FFF7D7
:10018000F7FF00F051FA00F04FF803B4FFF7F2FF69
:1001900003BC00F057F800000948804709480047B1
:1001A000FEE7FEE7FEE7FEE7FEE7FEE7FEE7FEE727
:1001B000FEE7FEE704480549054A064B7047000084
:1001C000E5030008ED000008680000206806002034
:1001D000680200206802002070477047704775462B
:1001E00000F02CF8AE4605006946534620F00700A3
:1001F000854618B020B5FFF7DDFFBDE820404FF081
:1002000000064FF000074FF000084FF0000BAC461F
:10021000ACE8C009ACE8C009ACE8C009ACE8C0096A
:1002200021F007018D46704710B50446AFF30080FA
:100230002046BDE81040FFF7A8BF00000048704707
:100240000000002001491820ABBEFEE72600020096
:100250007047000080B582B040F21441C4F2010141
:100260001020086001200190FFE70198042810DCAD
:10027000FFE741F20C01C4F20101086880F400506C
:100280000860C82000F020F9FFE7019801300190D4
:10029000EBE702B080BD000080B500F001F880BD42
:1002A00084B000200390029041F20001C4F20201E8
:1002B000086840F480300860FFE741F20000C4F2B3
:1002C0000200006800F400300290039801300390AF
:1002D000FFE702990020019039B9FFE70398B0F5D4
:1002E000A06018BF01200190FFE70198C007002817
:1002F000E3D1FFE741F20000C4F20200006880038E
:10030000002803D5FFE70120029002E000200290C0
:10031000FFE70298012851D1FFE742F20001C4F241
:100320000201086840F010000860086820F007002B
:100330000860086840F00200086041F20401C4F25D
:10034000020100910868086008680860086840F4C5
:1003500080600860086820F47C100860086840F439
:10036000E810086041F20001C4F20201086840F0A0
:1003700080700860FFE741F20000C4F202000068EC
:100380008001002801D4FFE7F5E741F20401C4F23F
:100390000201086820F003000860086840F00200CD
:1003A0000860FFE741F20400C4F20200006800F0B8
:1003B0000C00082801D0FFE7F4E700E0FFE704B0F5
:1003C0007047000040F26000C2F20000006840B1D7
:1003D000FFE740F26001C2F20001086801380860DE
:1003E000FFE7704780B541F20002C4F202021068D4
:1003F00040F00100106041F20401C4F202010868FB
:100400000023CFF6FF031840086010684FF6FF7313
:10041000CFF6F66318401060106820F4802010605A
:10042000086820F4FE00086041F20801C4F20201ED
:100430004FF41F000860FFF72FFF4EF60851CEF271
:1004400000014FF00060086080BD000081B043F6FD
:100450000C00C4F20100008843F60001C4F201015F
:10046000098808400006002813D5FFE741208DF8D1
:10047000030043F60C01C4F20101088820F080005B
:1004800008809DF8030043F60401C4F201010880CE
:10049000FFE701B07047000081B08DF803009DF9BF
:1004A000030000280ED4FFE79DF9031001F01F029E
:1004B000012090404A094EF20011CEF2000141F8AD
:1004C0002200FFE701B0704783B0ADF80A000020BA
:1004D0000190ADF80200FFE7BDF80200BDF80A1078
:1004E000884215DAFFE700200190FFE7019841F20A
:1004F0006F71884205D8FFE7FFE70198013001904E
:10050000F4E7FFE7BDF802000130ADF80200E3E7D1
:1005100003B0704741F21801C4F20201086840F0CC
:100520000400086040F60003C4F20103186840F0BC
:1005300002001860186820F001001860186840F088
:1005400008001860186820F0040018600422C4F243
:100550000102106820F440701060186840F00070CC
:100560001860186820F080701860186840F000600B
:100570001860186820F080601860106820F44060EF
:100580001060086844F2FC021043086040F6040260
:10059000C4F20102106840F400601060106820F49A
:1005A0004070106040F60C03C4F20103186840F478
:1005B00080601860106840F080001060106840F0A3
:1005C00030001060086840F07D00086040F600428E
:1005D000C4F20102106820F440301060106840F44A
:1005E00000201060106820F48020106040F60C425B
:1005F000C4F20102106840F010001060086840F07A
:100600001000086041F20401C4F20101086840F4DE
:1006100000100860086820F480100860086820F462
:10062000400008607047000080B582B00020019053
:10063000FFF770FF00F002F8FFE7FEE780B543F632
:100640000C01C4F20101088842F20C021043088038
:1006500043F60801C4F2010141F64C500880252000
:10066000FFF71AFF80BD0000780600080000002098
:080670006806000054010008B7
:04000005080000ED02
:00000001FF
